:0300000002091FD3
:0C091F00787FE4F6D8FD75810A020850CC
:1008EC0057494E44574159204120474F4F4420000F
:0508FC004E45575300BA
:100850001208D17BFF7A0879EC7F8012082D7BFF8C
:100860007A0879FC7FC012082D7F647E001208B6DA
:0208700080F70F
:1008B6007D3CD3EF9400EE9400400FDDFE7D3BDDE2
:0A08C600FE7D3CEF1F70EB1E80E882
:0108D0002205
:0C091200EF6009E4FE0EBEE1FC1F80F463
:01091E0022B6
:10090100C2A2C2A0D2A1D2A2AF80EF20E7F2C2A2BE
:0109110022C3
:10087200AE07120901C2A2C2A0C2A18E807FC81215
:100882000912D2A27FC8120912C2A27F017E0002FF
:0208920008B6A6
:10089400AE07120901C2A2D2A0C2A18E807F0A12A1
:1008A4000912D2A27F0A120912C2A27F017E00029B
:0208B40008B684
:1008D1007F381208727F0F1208727F061208727F2A
:0B08E100011208727F017E000208B6C1
:06082D008B088A09890A0C
:10083300120872E4FCAB08AA09A90A8C827583002A
:0C084300120800FF60061208940C80E907
:01084F002286
:10080000BB010CE58229F582E5833AF583E02250AD
:1008100006E92582F8E622BBFE06E92582F8E222F7
:0D082000E58229F582E5833AF583E4932211
:00000001FF
