:030000000208A94A
:0C08A900787FE4F6D8FD7581130208F09A
:0A0A0700C0F9A4B0999282F8809023
:0E09F80002080000080A0000000000000000D5
:1009D800E4FDFCC3ED9FEC9E5015E4FBFA0BBB0055
:0F09E800010AEB640A4A70F50DBD00010C80E4B2
:0109F70022DD
:03000300020800F0
:10080000C0E0C0F0C083C082C0D075D000C000C0BE
:0B08100002C003C004C005C006C00702
:10081B00C2A8D3E509940FE5089427400675080094
:10082B007509000509E509700205087B107A279008
:10083B000000AE08AF09AD03AC02120935AF82EF71
:10084B0025E0240AF8A60408A6057C007D0AAF0360
:10085B00AE02120935AA06AB07AF82EF25E0240AD8
:10086B00F8E6FE08E6FFAD03AC02120935AD82EDEA
:10087B0025E0240AF8A60608A607A3E5826404452A
:05088B008370AFD2A84C
:10089000D007D006D005D004D003D002D000D0D0ED
:0908A000D082D083D0F0D0E03208
:10098A00D288D2A8D2AFE4F512F513E4F590AF13EA
:10099A00EF25E0240AF8E6FC08E62407F582740A43
:1009AA003CF583E493F5807401A807088002C333F9
:1009BA00D8FCF5907F0A7E001209D80513E513705A
:0E09CA00020512C39404E512940040BF80B8E9
:1008B50002098AE493A3F8E493A34003F68001F2C6
:1008C50008DFF48029E493A3F85407240CC8C33344
:1008D500C4540F4420C8834004F456800146F6DF13
:1008E500E4800B01020408102040809009F8E47EA2
:1008F500019360BCA3FF543F30E509541FFEE49308
:10090500A360010ECF54C025E060A840B8E493A3CE
:10091500FAE493A3F8E493A3C8C582C8CAC583CAF9
:10092500F0A3C8C582C8CAC583CADFE9DEE780BEB1
:010A060000EF
:10093500BC000BBE0029EF8DF084FFADF022E4CCA6
:10094500F875F008EF2FFFEE33FEEC33FCEE9DEC6F
:10095500984005FCEE9DFE0FD5F0E9E4CEFD22EDB5
:10096500F8F5F0EE8420D21CFEADF075F008EF2FFF
:10097500FFED33FD4007985006D5F0F222C398FDF0
:050985000FD5F0EA228D
:00000001FF
