:020000040800F2
:10000000B0060020890100080D0F0008510A000801
:10001000010E0008A1050008E51500080000000019
:10002000000000000000000000000000951400081F
:100030001D06000800000000D1120008811500080C
:10004000A3010008A3010008A3010008A301000800
:10005000A3010008A301000865060008A106000826
:10006000A3010008A3010008A3010008A3010008E0
:10007000A3010008A3010008A3010008A3010008D0
:10008000A3010008A3010008A3010008A3010008C0
:10009000A3010008A3010008A3010008A3010008B0
:1000A000A3010008A3010008A3010008A3010008A0
:1000B000A3010008A3010008A3010008A301000890
:1000C000A3010008A3010008A3010008A301000880
:1000D000A3010008A3010008A3010008A301000870
:1000E000A3010008A3010008A301000800F002F822
:1000F00000F03AF80AA090E8000C82448344AAF188
:100100000107DA4501D100F02FF8AFF2090EBAE885
:100110000F0013F0010F18BFFB1A43F0010318473B
:10012000E01C0000001D0000103A24BF78C878C110
:10013000FAD8520724BF30C830C144BF04680C60ED
:10014000704700000023002400250026103A28BF35
:1001500078C1FBD8520728BF30C148BF0B60704739
:100160001FB51FBD10B510BD00F0C3F91146FFF754
:10017000F7FF01F039FA00F0E1F903B4FFF7F2FFFD
:1001800003BC00F0E9F9000009488047094800472E
:10019000FEE7FEE7FEE7FEE7FEE7FEE7FEE7FEE737
:1001A000FEE7FEE704480549054A064B7047000094
:1001B00085150008ED000008B0000020B006002002
:1001C000B0020020B002002010B5203AC0F00B8031
:1001D000B1E81850203AA0E81850B1E81850A0E84B
:1001E0001850BFF4F5AF5FEA027C24BFB1E81850A5
:1001F000A0E8185044BF18C918C0BDE810405FEA15
:10020000827C24BF51F8043B40F8043B08BF704790
:10021000D20728BF31F8023B48BF11F8012B28BF95
:1002200020F8023B48BF00F8012B7047014900F05D
:10023000DDB800002000002010B503681C1404EB9A
:1002400021449BB289B2194494FBF2F302FB13439D
:1002500094FBF2F401EB034393FBF2F102FB113147
:1002600093FBF2F301E05B1E11440029FBDB01600C
:1002700003EB044010BDF0B504464FF0FF3585B0E8
:100280000068049060680290A0680390E0680190A4
:1002900020690090666906F18040B0F1004F7CD87B
:1002A0003C22002104A8FFF7C7FF3C22014602A818
:1002B000FFF7C2FF1822014603A8FFF7BDFF411E4A
:1002C00040F2B55201A8FFF7B7FF0C220746684677
:1002D0000021FFF7B1FF414B00EB870030440026BF
:1002E0007B4411E0511A01910099491C02290091A7
:1002F00002D00C2908D105E0810705D00199491CDD
:10030000019101E0401C00960099019A595C9142CC
:10031000E8DD0099012906D11C2A04D1810702D009
:100320000221CDE90016A0F146018B293CD2DDE97E
:100330000061002202E09F5C521C3944B242FADBA9
:10034000012E02DD820700D0491E40F2B55340F273
:100350006D16C21700EB927292105A4300F003031D
:1003600003FB062283070A4400D1521E039E02EBC0
:100370004203049F06EBC303029EC3EB031306EB89
:100380008303174E33441E149BB2C6EB0616C3EB11
:100390000313B60007EB830300E005E006EB13460A
:1003A00066F31F43360C02D0284605B0F0BD80C46A
:1003B000029E40C4039E40C4019E761C44F80C6B10
:1003C000009E44E902600720521C92FBF0F600FBFD
:1003D000162084E823001846E7E70000101B000001
:1003E000A039CEFD704770477047000070B50C46CD
:1003F000016800204A1C3ED03C22B1FBF2F302FB14
:100400001313B1FBF2F12360B1FBF2F302FB131300
:10041000B1FBF2F118226360B1FBF2F302FB13139C
:10042000B1FBF2F146F2E0320A440721A360B2FBCD
:10043000F1F301FB132140F2B553B2FBF3F5A161D7
:10044000B2FBF3F103FB15228900B2F5B77F08D3A5
:100450009B10521EB2FBF3F52944B2FBF3F503FBEC
:1004600015220F4BE261616189077B440CD03B2A66
:100470000AD3521C08E02C21204600F013F801207A
:10048000E0600AE0521A401C195C9142FAD9521CF1
:10049000C4E903204FF0FF302062204670BD000009
:1004A000861900004FF0000200B5134694469646A8
:1004B000203922BFA0E80C50A0E80C50B1F1200177
:1004C000BFF4F7AF090728BFA0E80C5048BF0CC025
:1004D0005DF804EB890028BF40F8042B08BF704783
:1004E00048BF20F8022B11F0804F18BF00F8012BF5
:1004F0007047754600F02CF8AE4605006946534635
:1005000020F00700854618B020B5FFF74BFEBDE888
:1005100020404FF000064FF000074FF000084FF06A
:10052000000B21F00701AC46ACE8C009ACE8C009FB
:10053000ACE8C009ACE8C0098D46704710B5044668
:10054000AFF300802046BDE81040FFF716BE000064
:10055000004870474C00002001491820ABBEFEE760
:10056000260002007047000008B5014600200090F8
:10057000034800900098084400900098008808BD47
:10058000006C004008B500220092044A0092009AD4
:1005900002440092009A116008BD0000006C004007
:1005A00000BFFEE708B50121042000F0A3FE1020E3
:1005B0008DF803000001ADF8000003208DF8020063
:1005C0006946044800F09EF94FF48071014800F03C
:1005D00038FA08BD0008014010B54FF48071024898
:1005E00000F02FFA10BD00000008014010B54FF4D4
:1005F0008071024800F023FA10BD0000000801409D
:1006000010B54FF48071044800F010FA08B90120C9
:1006100010BD0020FCE7000000080140704700B555
:10062000034603E04FF47A7000F005F8181EA3F1BA
:100630000103F7D100BD00EBC001C9004FF0E0227B
:100640005161002191610521116100BF4FF0E0214E
:10065000096901F480310029F8D004214FF0E0222B
:100660001161704710B5012000F03EF8012812D149
:100670000121094800F0D1F950B90221064800F0E3
:10068000CCF928B905480088401E00B2034908800B
:10069000012000F023F810BD000C01400E000020E6
:1006A00010B5022000F020F8012812D102210948DB
:1006B00000F0B3F950B90121064800F0AEF928B9AD
:1006C00005480088401C00B203490880022000F061
:1006D00005F810BD000C01400E0000200149086023
:1006E0007047000014040140014600200022074B1F
:1006F0001B6803EA0102054B14331B680B4013B15E
:100700000AB1012000E00020704700000004014011
:10071000002123498279002A3AD00A4612680368E8
:100720009A430B461A600A1D126803689A430B1D10
:100730001A60027911440A6803681A430A60184A69
:100740000832126803689A43154B08331A601A1D61
:10075000126803689A43124B0C331A604279102ACC
:100760000ED11A1F126803681A430D4B08331A6022
:100770001A1D126803681A43094B0C331A600DE006
:100780000749427911440A6803681A430A6005E080
:10079000027911440A6803689A430A6070470000AE
:1007A0000004014010B500F03FF800F00FFB00F02E
:1007B00031F817490988084400B2154908800846ED
:1007C000B0F90000032802DD00F0C8FA01E000F0F3
:1007D000BDFA0F48B0F90000062802DD00F0CEFA9D
:1007E00001E000F0C3FA0A48B0F90000092802DD70
:1007F00000F0D4FA01E000F0C9FA0548B0F90000B1
:100800000C2802DD00F0DAFA01E000F0CFFA10BDAA
:100810000C0000200349B1F900000021014A1180B9
:10082000704700000E0000201FB50121082000F0D5
:1008300061FD0121084600F05DFD48208DF80F00A4
:100840000320ADF80C008DF80E0003A91C4800F041
:1008500059F80021012000F035F80121084600F088
:1008600031F80320019001208DF80A0000208DF856
:1008700008000C208DF8090001A8FFF749FF4FF48C
:10088000A06000F07DFB06208DF8000001208DF8AF
:1008900003008DF801008DF80200684600F038FB77
:1008A00007208DF8000001208DF803008DF801006D
:1008B00002208DF80200684600F02AFB1FBD0000F0
:1008C000000C014030B500228B071C0F0F2303FAE8
:1008D00004F20B4B8C1053F824309343084C8D10CA
:1008E00044F8253023468C1053F824308C07240F0D
:1008F00000FA04F42343024C8D1044F8253030BD37
:10090000080001402DE9F0410246002500260020A4
:1009100000230024002791F803C00CF00F0591F884
:1009200003C00CF0100CBCF1000F03D091F802C012
:100930004CEA050591F800C0BCF1000F31D01468F5
:1009400000202BE04FF0010C0CFA00F3B1F800C0CE
:100950000CEA03069E4220D183004FF00F0C0CFAE4
:1009600003F7BC4305FA03FC4CEA040491F803C006
:10097000BCF1280F06D14FF0010C0CFA00FCC2F8B4
:1009800014C00AE091F803C0BCF1480F05D14FF044
:10099000010C0CFA00FCC2F810C0401C0828D1D38E
:1009A0001460B1F800C0BCF1FF0F34DD54680020C2
:1009B0002EE000F1080C4FF0010808FA0CF3B1F832
:1009C00000C00CEA03069E4221D183004FF00F0CB9
:1009D0000CFA03F7BC4305FA03FC4CEA040491F853
:1009E00003C0BCF1280F05D100F1080C08FA0CF87F
:1009F000C2F8148091F803C0BCF1480F07D100F190
:100A0000080C4FF0010808FA0CF8C2F81080401CDE
:100A10000828CED35460BDE8F081024600209368D8
:100A20000B400BB1012000E000207047024600207F
:100A3000D3680B400BB1012000E0002070474161FA
:100A40007047016170470AB1016100E04161704780
:100A500000BFFEE710B500F0F1F86849087068487B
:100A60000078002865D10846007801280BD1654838
:100A70000078401C63490870084600783C2801DD76
:100A800000200870B9E05D48007802280BD15E486C
:100A90000078401C5C490870084600783C28F1DD6D
:100AA00000200870A9E05548007803280BD157486A
:100AB0000078401C55490870084600783C28E1DD64
:100AC0000020087099E04D4800780428DAD1FFF73B
:100AD00097FD30BB4B4800784FF4616148434A4969
:100AE0000978C1EB011100EB8100484909780844FD
:100AF000474908600846006878B100F06DFC444939
:100B000009680844401E434908600846006800F030
:100B100079FC0120404908706FE0012038490870D5
:100B20006BE0FFF759FD3DA20121042000F096FB88
:100B300063E03348007801282BD130480078012841
:100B400007D139480088401C3749088000F0B8F9BF
:100B500053E02A480078022807D133484088401CD7
:100B60003149488000F0ACF947E024480078032878
:100B700007D12D488088401C2B49888000F0A0F9BF
:100B80003BE01E480078042837D102201C49087039
:100B900033E01B48007802282FD11848007801283C
:100BA00007D12148C088401C1F49C88000F088F93F
:100BB00023E012480078022807D11B480089401C16
:100BC0001949088100F07CF917E00C4800780328E7
:100BD00007D115484089401C1349488100F070F93D
:100BE0000BE006480078042807D10020044908706B
:100BF0000EA20121042000F031FB10BD1B000020DB
:100C00001D00002018000020190000201A000020FC
:100C100014000020100000201C00002020202020B4
:100C200020202020000000000000002020202020A4
:100C300020202020202020200000000070B500256A
:100C4000354C4FF480513548FFF7E7FEA8B9142022
:100C5000FFF7E5FC06E0641E24B91420FFF7DFFC73
:100C6000012070BD4FF480512C48FFF7D6FE0028BC
:100C7000F1D01420FFF7D3FC01254FF40051274891
:100C8000FFF7CBFEA8B91420FFF7C9FC06E0641EED
:100C900024B91420FFF7C3FC0220E2E74FF400510F
:100CA0001E48FFF7BAFE0028F1D01420FFF7B7FC6A
:100CB00002254FF480411948FFF7AFFEA8B9142070
:100CC000FFF7ADFC06E0641E24B91420FFF7A7FC73
:100CD0000320C6E74FF480411048FFF79EFE00282E
:100CE000F1D01420FFF79BFC03254FF400410B4883
:100CF000FFF793FE70B91420FFF791FC00BF4FF48B
:100D000000410648FFF789FE0028F8D01420FFF7BD
:100D100086FC04252846A4E7E0930400000C01406B
:100D200008B50121082000F0E5FA48208DF80300FD
:100D30004FF47040ADF8000003208DF802006946C2
:100D40000148FFF7DFFD08BD000C014010B5102180
:100D50000148FFF776FE10BD0008014010B51021D4
:100D60000148FFF76CFE10BD0008014010B50821D6
:100D70000148FFF766FE10BD0008014010B50821CC
:100D80000148FFF75CFE10BD0008014010B50421CA
:100D90000148FFF756FE10BD0008014010B50421C0
:100DA0000148FFF74CFE10BD0008014010B50221BC
:100DB0000148FFF746FE10BD0008014010B50221B2
:100DC0000148FFF73CFE10BD0008014008B50121B5
:100DD000042000F08FFA10208DF803001E20ADF8DB
:100DE000000003208DF8020069460448FFF78AFDE1
:100DF00006210248FFF725FE08BD0000000801405B
:100E000000BFFEE710B50121080700F063FA0121D9
:100E1000C80600F05FFA012000F054FA0420FFF742
:100E2000A3FB4AF2A551884220D0012000F090FA9D
:100E300000BF412000F06EFA0128FAD1000200F054
:100E4000A7FA012000F09EFA00F012FB00F006FB6A
:100E500047F6FF7000F0F2FA00F000FB00F030F807
:100E60004AF2A5510420FFF78DFB03E000F000FBE0
:100E700000F0F4FA10BD000010B58CB000F0ACFA30
:100E800000F5E1400B900BA8FFF7D0F904462C22A7
:100E900021466846FFF798F9059800F26C700749FB
:100EA00008800498401C4880039888800298C88075
:100EB00001980881009848810CB010BD0000002006
:100EC00010B58CB010480088A0F26C7006900E48E7
:100ED0004088401E05900C48808804900A48C088CD
:100EE000039009480089029007484089019001A8B1
:100EF000FFF7C1F9A0F5E144204600F091FA00F0B7
:100F0000ADFA0CB010BD00000000002070470000DA
:100F100070B5002100230F22C47804B3154C246857
:100F200004F4E064C4F5E064210AC1F10403CA409A
:100F3000447804FA03F184781440214309010E4CEB
:100F40000678A155047804F01F050124AC4005780B
:100F50006D11AD0005F1E025C5F8004109E0047808
:100F600004F01F050124AC40044D0678761145F8C5
:100F7000264070BD0CED00E000E400E080E100E000
:100F800002490143024A1160704700000000FA055F
:100F90000CED00E070B500240EE00021204600F0CA
:100FA000F0F8002504E0002000F07CF9681CC5B2D0
:100FB000802DF8DB601CC4B2082CEEDB70BD000095
:100FC00008B50121082000F095F914208DF80300E0
:100FD00003208DF802004FF48070ADF800006946E0
:100FE0000A48FFF78FFC4FF40070ADF80000694627
:100FF0000648FFF787FC012211020448FFF723FD92
:10100000012251020148FFF71EFD08BD000C0140FE
:1010100070B50546002415E08020204100EA050255
:101020004FF400710E48FFF70EFD012211020C482B
:10103000FFF709FD00224FF480710948FFF703FD17
:10104000601CC4B2082CE7DB012211020448FFF740
:10105000FAFC00224FF480710148FFF7F4FC70BDE8
:10106000000C014010B5012251020A48FFF7EBFCC9
:10107000012211020748FFF7E6FC00224FF400713D
:101080000448FFF7E0FC00224FF480710148FFF7AD
:10109000DAFC10BD000C014010B500224FF40071C5
:1010A0000648FFF7D0FC012211020448FFF7CBFCF1
:1010B000012251020148FFF7C6FC10BD000C01409F
:1010C00070B5002406E0002500E06D1CB5F57A7FC0
:1010D000FBD3641CB4F57A7FF5D3FFF771FFAE2024
:1010E00000F0D0F8D52000F0CDF8802000F0CAF84C
:1010F000A82000F0C7F83F2000F0C4F8D32000F08B
:10110000C1F8002000F0BEF8402000F0BBF8A1209C
:1011100000F0B8F8C82000F0B5F8DA2000F0B2F816
:10112000122000F0AFF8812000F0ACF8CF2000F0E2
:10113000A9F8D92000F0A6F8F12000F0A3F8DB20F0
:1011400000F0A0F8302000F09DF8A42000F09AF8FC
:10115000A62000F097F88D2000F094F8142000F0FD
:1011600091F8AF2000F08EF8FFF714FF70BD10B5B6
:101170000246012000E050430B1EA1F10101FAD10B
:1011800010BD70B505460C4645F0B00000F07AF889
:10119000102141EA141000F075F804F00F0000F07F
:1011A00071F870BD2DE9F04105460E461746721ED6
:1011B000D206110E6A1E5206100EFFF7E2FF00243F
:1011C00009E0A7F12001134A02EB0111085D00F0CC
:1011D00069F8601CC4B2082CF3DB721ED206110E33
:1011E0006A1E012303EB4202D0B2FFF7CAFF0024BC
:1011F0000BE0A7F12001074A02EB011204F10801FC
:10120000505C00F04FF8601CC4B2082CF1DBBDE864
:10121000F0810000041800082DE9F04780460E46D2
:1012200017461D46002415E0281B411E0A20FFF723
:101230009EFFB7FBF0F00A21B0FBF1F201FB1200B8
:1012400000F130093019C1B24A464046FFF7AAFF03
:10125000601CC4B2AC42E7DBBDE8F0872DE9F04189
:1012600007460E461546002407E02A5D3019C1B234
:101270003846FFF797FF601CC4B2285D0028F4D100
:10128000BDE8F08110B50446FFF7ECFE7820FFF7CB
:10129000BFFE0020FFF7BCFE2046FFF7B9FEFFF7B8
:1012A000FBFE10BD10B50446FFF7DCFE7820FFF70B
:1012B000AFFE4020FFF7ACFE2046FFF7A9FEFFF788
:1012C000EBFE10BD014908627047000000000E42AD
:1012D0007047000029B1064AD2690243044BDA6123
:1012E00004E0034AD2698243014BDA61704700008F
:1012F0000010024029B1064A92690243044B9A61E8
:1013000004E0034A92698243014B9A6170470000EE
:101310000010024010B501460022002300204A11AF
:10132000012A02D1094C236806E0022A02D1074CA7
:10133000236A01E0054C636A01F01F020124944016
:101340001C400CB1012000E0002010BD0010024044
:1013500000210B4A11700A4A203A82F82010012815
:1013600002D0042808D103E00121054A117004E0ED
:101370000521034A117000E000BF00BF7047000064
:101380002010024001490860704700003C044242BE
:101390000249096A0143014A116270470010024084
:1013A000024909888143014A11807047042800409E
:1013B0000348008840F01000014908807047000091
:1013C00004280040034800884FF6EF7108400149A7
:1013D0000880704704280040002103480188001F4E
:1013E000008841EA004070471C2800400146002068
:1013F000034A12880A400AB1012000E00020704729
:101400000428004000B50246FFF7D2FF100C034944
:101410000880091D0A80FFF7D5FF00BD2028004085
:1014200000B50246FFF7C4FF100C03490880091DF0
:101430000A80FFF7C7FF00BD1828004000B502462C
:10144000FFF7B6FFC2F3034003490880091D0A8075
:10145000FFF7B8FF00BD00000828004000BF0348A8
:10146000008800F020000028F9D0704704280040D0
:10147000074800884FF6F77108400549088000BF0B
:101480000348008800F008000028F9D070470000E9
:1014900004280040704710B500F002F810BD0000AD
:1014A0000CB50020019000903348006840F4803073
:1014B0003149086000BF3048006800F400300090F7
:1014C0000198401C0190009818B90198B0F5A06FE0
:1014D000F1D12948006800F4003010B101200090DB
:1014E00001E0002000900098012843D123480068C3
:1014F00040F01000214908600846006820F0030011
:1015000008600846006840F0020008601A48406819
:10151000194948600846406848600846406840F4F9
:10152000806048600846406820F47C1048600846A7
:10153000406840F4E81048600846006840F0807059
:10154000086000BF0C48006800F000700028F9D067
:101550000948406820F00300074948600846406891
:1015600040F00200486000BF0348406800F00C00F3
:101570000828F9D10CBD00000010024000200240F4
:101580007047000010B51348006840F00100114991
:10159000086008464068104908400E4948600846FF
:1015A00000680E4908400B4908600846006820F4AE
:1015B000802008600846406820F4FE0048604FF430
:1015C0001F008860FFF767FF4FF000600449086064
:1015D00010BD0000001002400000FFF8FFFFF6FE03
:1015E00008ED00E000BFFEE7FFF76AFDFFF70AFC29
:1015F000FFF796FBFEF7D6FF62A201210846FFF730
:101600002DFE64A201210220FFF728FE65A2012120
:101610000320FFF723FEB4E0FFF72EFCFFF71AFAD2
:1016200064480288042306210120FFF7F5FD614884
:10163000428802230B210120FFF7EEFD5D488288DE
:1016400002230E210120FFF7E7FD5A48C28802233A
:1016500006211846FFF7E0FD5648028902230921BA
:101660001846FFF7D9FD5348428902230C2118463A
:10167000FFF7D2FD50480078002858D0FFF7ACFEA5
:101680004E490968081A401C4D4908600846006820
:101690004FF46161B0FBF1F40223224607210320DD
:1016A000FFF7BAFD464800684FF46161B0FBF1F204
:1016B00001FB12003C21B0FBF1F4022322460A2177
:1016C0000320FFF7A9FD3E4800684FF46161B0FBBD
:1016D000F1F201FB12003C21B0FBF1F201FB12041C
:1016E000022322460D210320FFF796FD0220FFF77B
:1016F0007DFE012815D10220FFF752FE00202E4961
:1017000008702F4908602F4908702F4908702F4929
:101710000870FEF76BFF2EA201210420FFF79EFD4B
:101720001AE02EA201210420FFF798FD14E0022305
:101730002448027807210320FFF76EFD0223224888
:1017400002780A210320FFF767FD02231F48027871
:101750000D210320FFF760FD23480078012805D103
:1017600022A201210420FFF779FD08E01E4800783D
:10177000022804D120A201210420FFF76FFDFFF70A
:1017800011F849E7446174653A585858582D58582B
:101790002D58580054696D653A58583A58583A5877
:1017A00058000000416C61726D3A58583A58583AE6
:1017B00058580000000000201C00002010000020ED
:1017C0001400002018000020190000201A0000203A
:1017D00054696D65204F757400000000436F756E8D
:1017E00074696E67000000001D0000204368616E90
:1017F00067652044617465004368616E67652054C5
:10180000696D65000000000000000000000000009D
:1018100000000000000000F800000000000000339D
:101820003000000000100C06100C06000000000044
:101830000000000040C07840C0784000043F04042D
:101840003F040400007088FC08300000001820FFEE
:10185000211E0000F008F000E018000000211C0329
:101860001E211E0000F00888700000001E212324A5
:101870001927211010160E000000000000000000C3
:1018800000000000000000E0180402000000000753
:101890001820400000020418E0000000004020185A
:1018A00007000000404080F0804040000202010F2D
:1018B00001020200000000F0000000000101011F11
:1018C00001010100000000000000000080B0700075
:1018D0000000000000000000000000000001010105
:1018E0000101010100000000000000000030300094
:1018F000000000000000000080601804006018066E
:101900000100000000E010080810E000000F1020A7
:1019100020100F00001010F8000000000020203FF1
:10192000202000000070080808887000003028247B
:10193000222130000030088888483000001820201C
:1019400020110E000000C02010F800000007042441
:10195000243F240000F80888880808000019212086
:1019600020110E0000E0108888180000000F1120E0
:1019700020110E0000380808C83808000000003F99
:10198000000000000070880808887000001C2221F8
:1019900021221C0000E010080810E00000003122A5
:1019A00022110F00000000C0C00000000000003045
:1019B0003000000000000080000000000000806097
:1019C0000000000000008040201008000001020418
:1019D00008102000404040404040400004040404FF
:1019E00004040400000810204080000000201008BB
:1019F00004020100007048080808F00000000030F0
:101A000036010000C030C828E810E000071827247D
:101A100023140B000000C038E0000000203C23022B
:101A20000227382008F8888888700000203F20208E
:101A300020110E00C03008080808380007182020C0
:101A40002010080008F808080810E000203F2020B7
:101A500020100F0008F88888E8081000203F202098
:101A60002320180008F88888E8081000203F20008C
:101A700003000000C03008080838000007182020C4
:101A8000221E020008F808000008F808203F210183
:101A900001213F20000808F8080800000020203F2E
:101AA0002020000000000808F8080800C08080809E
:101AB0007F00000008F888C028180800203F200197
:101AC0002638200008F8080000000000203F2020F1
:101AD0002020300008F8F800F8F80800203F003F08
:101AE000003F200008F830C00008F808203F200020
:101AF00007183F00E01008080810E0000F10202031
:101B000020100F0008F808080808F000203F210105
:101B100001010000E01008080810E0000F1824245C
:101B200038504F0008F8888888887000203F2000CF
:101B3000030C302000708808080838000038202185
:101B400021221C00180808F8080818000000203F8F
:101B50002000000008F808000008F808001F2020F6
:101B600020201F000878880000C8380800000738C7
:101B70000E010000F80800F80008F800033C070018
:101B8000073C0300081868808068180820302C0380
:101B9000032C30200838C800C83808000000203F57
:101BA0002000000010080808C83808002038262146
:101BB00020201800000000FE020202000000007F4A
:101BC00040404000000C30C0000000000000000158
:101BD0000638C00000020202FE0000000040404043
:101BE0007F00000000000402020204000000000068
:101BF00000000000000000000000000080808080E5
:101C000080808080000202040000000000000000CC
:101C10000000000000008080808000000019242265
:101C200022223F2008F8008080000000003F1120A1
:101C300020110E000000008080800000000E1120A6
:101C400020201100000000808088F800000E112084
:101C500020103F200000808080800000001F222292
:101C600022221300008080F0888888180020203FFE
:101C7000202000000000808080808000006B949411
:101C80009493600008F8008080800000203F2100CD
:101C900000203F2000809898000000000020203F96
:101CA00020200000000000809898000000C0808084
:101CB000807F000008F8000080808000203F240220
:101CC0002D302000000808F8000000000020203F10
:101CD000202000008080808080808000203F2000C5
:101CE0003F20003F8080008080800000203F210056
:101CF00000203F200000808080800000001F202006
:101D000020201F00808000808000000080FFA12034
:101D100020110E000000008080808000000E112045
:101D200020A0FF80808080008080800020203F21D4
:101D30002000010000008080808080000033242487
:101D400024241900008080E0808000000000001F33
:101D5000202000008080000000808000001F2020E4
:101D600020103F20808080000080808000010E30A5
:101D70000806010080800080008080800F300C0306
:101D80000C300F0000808000808080000020312E09
:101D90000E312000808080000080808080818E70E5
:101DA0001806010000808080808080000021302C97
:101DB0002221300000000000807C020200000000B0
:101DC000003F404000000000FF0000000000000055
:101DD000FF0000000002027C800000000040403F45
:101DE00000000000000601010202040400000000DF
:101DF000000000001F1D1F1E1F1E1F1F1E1F1E1F75
:101E0000201E00080000002020000000280100081B
:101E1000401E000820000020900600004401000839
:101E2000E8070C001D000C001A001E000000000056
:101E300000000000000000000000000000000000A2
:04000005080000ED02
:00000001FF
