:03000000020115E5
:0C011500787FE4F6D8FD75810A020053E3
:1000EF0057494E44574159204120474F4F44200014
:0500FF004E45575300BF
:100053001200907BFF7A0079EF7F801200307BFFE4
:100063007A0079FF7FC01200307F647E0012007532
:0200730080F714
:100075007D3CD3EF9400EE9400400FDDFE7D3BDD2B
:0A008500FE7D3CEF1F70EB1E80E8CB
:01008F00224E
:0D00AB00C2A18E807F051200B8D2A27F0591
:0C00B800EF6009E4FE0EBEE1FC1F80F4C6
:0100C4002219
:10010400C2A2C2A0D2A1D2A2AF80EF20E7F2C2A2C3
:0101140022C8
:1000C500AE07120104C2A2C2A01200ABC2A27F01F8
:0500D5007E0002007531
:1000DA00AE07120104C2A2D2A01200ABC2A27F01D3
:0500EA007E000200751C
:100090007F381200C57F0F1200C57F061200C57F92
:0B00A000011200C57F017E0002007508
:060030008B088A09890A11
:100036001200C5E4FCAB08AA09A90A8C82758300E4
:0C004600120003FF60061200DA0C80E9D3
:01005200228B
:10000300BB010CE58229F582E5833AF583E02250B2
:1000130006E92582F8E622BBFE06E92582F8E222FC
:0D002300E58229F582E5833AF583E4932216
:00000001FF
