:0F091B00C0F9A4B0999282F88090FF01020408FD
:1008FC00D3EF9400EE94004015E4FDFC0DBD000117
:0E090C000CED647D4C70F5EF1F70E51E80E26F
:01091A0022BA
:10080000758902758A9C758C9C75A882D28CC2A74A
:10081000D2B6C2B6D2B630B0FDC2B77580FFAF80D7
:10082000D2B7EF75F064A4FFAEF07C007D33120800
:10083000A78E088F097C007D0A1208A78D0DAE08CF
:10084000AF097C007D0A1208A77C007D0A1208A768
:100850008D0CAE08AF097C007D641208A77C007D7A
:100860000A1208A78D0BAE08AF097C037DE81208B9
:10087000A78F0AE50A7003750A0AE4FBEBC3940428
:10088000508EE4F5A0740A2BF8E690091B93F590BE
:10089000BB010353907FEB90092693F5A07F017E67
:0708A000001208FC0B80D5DB
:03000B00020936B1
:03093600B2B13229
:0300000002092AC8
:0C092A00787FE4F6D8FD75810D0208000E
:1008A700BC000BBE0029EF8DF084FFADF022E4CC35
:1008B700F875F008EF2FFFEE33FEEC33FCEE9DECFE
:1008C700984005FCEE9DFE0FD5F0E9E4CEFD22ED44
:1008D700F8F5F0EE8420D21CFEADF075F008EF2F8E
:1008E700FFED33FD4007985006D5F0F222C398FD7F
:0508F7000FD5F0EA221C
:00000001FF
