:03000000020936BC
:0C093600787FE4F6D8FD75810D02080002
:0F092700C0F9A4B0999282F88090FF01020408F1
:10090800D3EF9400EE94004015E4FDFC0DBD00010A
:0E0918000CED647D4C70F5EF1F70E51E80E263
:0109260022AE
:10080000758902758A9C758C9C75A882D28CC2A74A
:10081000D2B6C2B6D2B630B0FDC2B77580FFAF80D7
:10082000D2B77E007C037DE81208A17C007D3312E4
:1008300008B38E088F097C037DE81208B38F0AAED7
:1008400008AF097C007D641208B37C007D0A1208A1
:10085000B38D0BAE08AF097C007D0A1208B37C0093
:100860007D0A1208B38D0CAE08AF097C007D0A1218
:1008700008B38D0DE4FBEBC394045094E4F5A0742D
:100880000A2BF8E690092793F590EB700353907FBD
:10089000EB90093293F5A07F017E001209080B80CE
:0108A000D582
:03000B00020942A5
:03094200B2B1321D
:1008A100EF8DF0A4A8F0CF8CF0A428CE8DF0A42E6B
:0208B100FE2225
:1008B300BC000BBE0029EF8DF084FFADF022E4CC29
:1008C300F875F008EF2FFFEE33FEEC33FCEE9DECF2
:1008D300984005FCEE9DFE0FD5F0E9E4CEFD22ED38
:1008E300F8F5F0EE8420D21CFEADF075F008EF2F82
:1008F300FFED33FD4007985006D5F0F222C398FD73
:050903000FD5F0EA220F
:00000001FF
