:0300000002091CD6
:0C091C00787FE4F6D8FD75810D0208001C
:0F090D00C0F9A4B0999282F88090FFF1F2F4F84B
:1008EE00D3EF9400EE94004015E4FDFC0DBD000125
:0E08FE000CED647D4C70F5EF1F70E51E80E27E
:01090C0022C8
:10080000758902758A9C758C9C75A882D28CC2A74A
:10081000D2B6C2B6D2B630B0FDC2B7AF80D2B7EF53
:1008200075F064A475F03384750800F509AE08FF0F
:100830007C007D0A1208998D0DAE08AF097C007D01
:100840000A1208997C007D0A1208998D0CAE08AF37
:10085000097C007D641208997C007D0A1208998D3C
:100860000BAE08AF097C037DE81208998F0AE4FB00
:10087000EBC39404509A740A2BF8E690090D93F593
:1008800090BB010353907FEB90091893F4F5A07F80
:09089000017E001208EE0B80D776
:03000B00020928BF
:03092800B2B13237
:10089900BC000BBE0029EF8DF084FFADF022E4CC43
:1008A900F875F008EF2FFFEE33FEEC33FCEE9DEC0C
:1008B900984005FCEE9DFE0FD5F0E9E4CEFD22ED52
:1008C900F8F5F0EE8420D21CFEADF075F008EF2F9C
:1008D900FFED33FD4007985006D5F0F222C398FD8D
:0508E9000FD5F0EA222A
:00000001FF
