:03000000020BC52B
:0C0BC500787FE4F6D8FD758112020A402A
:100800000000C038E0000000000000000000000010
:10081000203C2302022738200000000000000000D6
:10082000180808F808081800000000000000000080
:100830000000203F20000000000000000000000039
:1008400000708808088870000000000000000000A8
:10085000001C222121221C000000000000000000DA
:1008600000F008080810E000000000000000000090
:100870000001122222110F00000000000000000001
:10088000C030080808083800000000000000000020
:1008900007182020201008000000000000000000C1
:1008A00000F88888880808000000000000000000A8
:1008B0000019202020110E000000000000000000A0
:1008C00000001010F8000000000000000000000010
:1008D000000020203F202000000000000000000059
:1008E0000000F8494A4C48F8484C4A49FC080000C6
:1008F00010101712121212FF1212121213181000F7
:10090000000000FE20202020203F2020202000008A
:100910000080601F020202020202FE0000000000CE
:100920001010D0FF901000FE020202FE0000000036
:10093000040300FF0083601F0000003F4040780078
:1009400008049392969A92FA94939296FA0202006D
:100950004040472424140CFF04042444241C0000B9
:1009600020202020202021222C2020202020200098
:10097000004020100C030000000102041860000079
:1009800000020C80608040300FC808082818000062
:1009900002027E01804020180601061820408000D7
:1009A000100C048414640506F404040404140C00FC
:1009B000048484444724140C070C14244484040045
:1009C00002FA8282FE804020504C434C502040006E
:1009D00008184884443F404458414E6058474000FE
:1009E000404042CC00808888FF8888FF888880004B
:1009F0000040201F2040504C4340405F404040009A
:100A0000001088C4330040424242C2424242400089
:100A1000020100FF0000000040807F000000000095
:100A20000000F010101010FF10101010F000000067
:100A300000000F04040404FF040404040F00000079
:100B4A00C2A3C2A28F807F0A7E00120B5DD2A27F4F
:030B5A000A7E0010
:100B5D00EF1FAC0670011E4C600A7D027CEFDCFEBF
:040B6D00DDFC80EC3F
:010B71002261
:100BB000EF1FAC0670011E4C600A7D027C18DCFE43
:040BC000DDFC80ECEC
:010BC400220E
:100B9600D2A3C2A4D2A2C2A2E59030E70CD2A2058B
:090BA6000EE50ED3940A40EE2284
:010BAF002223
:0B0BDD00120B96C2A4120B4AC2A22207
:0B0BE800120B96D2A4120B4AC2A222EC
:0C0BD1007F30120BDD7F0A7E00020BB0AB
:100B7200AB07EDC39440400AD2A5C2A674C02DFDB6
:100B82008004D2A6C2A5ED4440FF120BDDEB44B8AF
:040B9200FF020BDD76
:0A0AE3008F088D098B0A8A0B890C1D
:100AED00E4F50DE50825E0FFE509C454F0250DFDFD
:100AFD00120B72AB0AAA0BA90C850D82758300121D
:0F0B0D000B1DFF120BE8050DE50DC3941040D42E
:010B1C0022B6
:100A4000120BD1E4F50FF510C3E5109410E50F6417
:100A5000809480401E751100751202AF12C007E528
:100A60001024F0FDE510AE0F7805C333CE33CED899
:100A7000F98043C3E5109408E50F64809480401E1C
:100A8000751100751201AF12C007E51024F8FDE5DD
:100A900010AE0F7805C333CE33CED8F98018E4F505
:100AA00011F512AF12C007AD10E510AE0F7805C3F7
:100AB00033CE33CED8F92400F974083EFA7BFFD048
:100AC00007120AE30510E5107002050FC39412E542
:100AD0000F648094805003020A487F017E00120B4D
:030AE000B080FEE5
:100B1D00BB010CE58229F582E5833AF583E022508D
:100B2D0006E92582F8E622BBFE06E92582F8E222D7
:0D0B3D00E58229F582E5833AF583E49322F1
:00000001FF
