:10087F000103090211040B0605146440150E4F23E2
:10088F005C075B1741100D12124941651B133E4562
:10080000E4FFFEF508F509FDFCED90087F93FB740D
:10081000302FF8A6030DBD00010C0FBF00010EEF35
:1008200064204E70E4E4FCFDE4FEFFC3741F9DFBF6
:10083000E49CFAC3EF9BEA6480F8EE64809850323F
:1008400074312FF8E6F974302FF8E6FBD3E96480B1
:10085000F8EB6480984014EB3395E0F5088B09744D
:10086000302FF8A60174312FF8A6090FBF00010E32
:0F08700080B90DBD00010CED641F4C70AB80FE14
:0300000002089F54
:0C089F00787FE4F6D8FD75814F02080058
:00000001FF
