:0300000002027E7B
:0C027E00787FE4F6D8FD75810D0201596F
:10026B00C0F9A4B0999282F88090FFF1F2F4F800F3
:03027B0000000080
:0D023F00E50890027693F4F5A07F017E00A3
:10024C00D3EF9400EE94004015E4FDFC0DBD0001CD
:0E025C000CED647D4C70F5EF1F70E51E80E226
:01026A002271
:10015900780A7C007D007BFF7A02797A7E007F0431
:100169001200DE758902758A9C758C9C75A882D2ED
:100179008CC2A7D2B6C2B6D2B6E4F50875A00F7480
:100189000A2508F8E690026B93F590E508B4010397
:1001990053907F12023F75A00F0508E508C3940428
:1001A90040DA30B0D4C2B7AF80D2B7EF75F064A4EB
:1001B900FFAEF07C007D33120104AB07AA067C0078
:1001C9007D0A1201048D0D7C007D0AAF03AE021277
:1001D90001047C007D0A1201048D0C7C007D64AF52
:1001E90003AE021201047C007D0A1201048D0BAEDC
:1001F90002AF037C037DE81201048F0AE4F509E5E7
:1002090009C3940A400302017CE4F50875A00F7440
:100219000A2508F8E690026B93F590E508B4010306
:1002290053907F12023F75A00F0508E508C3940497
:0602390040DA050980C94E
:03000B00020003ED
:03000300B2B13265
:10000E00E709F608DFFA8046E709F208DFFA803ED4
:10001E0088828C83E709F0A3DFFA8032E309F608C1
:10002E00DFFA8078E309F208DFFA807088828C8329
:10003E00E309F0A3DFFA806489828A83E0A3F608DD
:10004E00DFFA805889828A83E0A3F208DFFA804CB7
:10005E0080D280FA80C680D4806980F2803380108E
:10006E0080A680EA809A80A880DA80E280CA8033F7
:10007E0089828A83ECFAE493A3C8C582C8CCC5836F
:10008E00CCF0A3C8C582C8CCC583CCDFE9DEE7803F
:10009E000D89828A83E493A3F608DFF9ECFAA9F0BE
:1000AE00EDFB2289828A83ECFAE0A3C8C582C8CC14
:1000BE00C583CCF0A3C8C582C8CCC583CCDFEADE2D
:1000CE00E880DB89828A83E493A3F208DFF980CC8F
:1000DE0088F0EF60010E4E60C388F0ED2402B40488
:1000EE000050B9F582EB2402B4040050AF2323452F
:0600FE00822390005E73F6
:10010400BC000BBE0029EF8DF084FFADF022E4CCDF
:10011400F875F008EF2FFFEE33FEEC33FCEE9DECA8
:10012400984005FCEE9DFE0FD5F0E9E4CEFD22EDEE
:10013400F8F5F0EE8420D21CFEADF075F008EF2F38
:10014400FFED33FD4007985006D5F0F222C398FD29
:050154000FD5F0EA22C6
:00000001FF
