:03000000020800F3
:0C080000787FE4F6D8FD758117020847E8
:1008C8000808F9A4B0999282F8800810FEFDFBF799
:0408D800EFDFBF7F10
:1008B300EF1FAC0670011E4C600A7D027CEFDCFE6C
:0408C300DDFC80ECEC
:0108C700220E
:10088C00E4FBFA74082BF8E6F58074102BF8E6F507
:10089C00A07FC87E001208B375A0FF0BBB00010A35
:0608AC00EB64084A70DD58
:0108B2002223
:0508DD0012088C80FBF5
:10080C000208DDE493A3F8E493A34003F68001F21D
:10081C0008DFF48029E493A3F85407240CC8C333ED
:10082C00C4540F4420C8834004F456800146F6DFBC
:10083C00E4800B01020408102040809008C8E47E7C
:10084C00019360BCA3FF543F30E509541FFEE493B1
:10085C00A360010ECF54C025E060A840B8E493A378
:10086C00FAE493A3F8E493A3C8C582C8CAC583CAA3
:10087C00F0A3C8C582C8CAC583CADFE9DEE780BE5B
:0108DC00001B
:00000001FF
