:03000000020A1BD6
:0C0A1B00787FE4F6D8FD75811702080012
:0D09C600C2918F807F051209D3D2927F0568
:0909D300EFD3940040031F80F7EC
:0109DC0022F8
:10097300D3EF9400EE94004015E4FDFC0DBD00019F
:0E0983000CBC03F8BDE8F5EF1F70E51E80E226
:010991002243
:1009EE00C292C2901209C6C2927F0A7E0002097399
:1009FE00C292D2901209C6C2927F0A7E0002097379
:0A0A2700AB051209EEAF030209FE51
:10091C008B158A1689171209EEAB15AA16A9171290
:10092C0009ADD3940040180517E51770020516148D
:10093C00F91209ADFF1209FE7F0A1209D380DA22DF
:10094C007F647E001209737F381209EE7F0C120946
:10095C00EE7F061209EE7F011209EE7F381209EEC6
:07096C007F647E00020973A5
:1009920068756D69646974793A00257268007465D6
:0B09A2006D70657261747572653A003B
:1008000012094C1208737BFF7A0979927F801209D2
:100810001CE50D75F00A842430FD7F89120A27E556
:100820000D75F00A84E5F02430FD7F8A120A277BDB
:10083000FF7A09799C7F8B12091C7BFF7A0979A0CA
:100840007FC012091CE51175F00A842430FD7FCCAD
:10085000120A27E51175F00A84E5F02430FD7FCDFA
:10086000120A277DDF7FCE120A277D437FCF120A2F
:030870002780904E
:0C0A0E007F017ED87D23DDFEDEFCDFFAD8
:010A1A0022B9
:0909DD001209E61209E61209E60E
:0709E6000000007F18DFFE96
:0109ED0022E7
:1008DF00E4FE751202209307AF120512EF70F612A5
:1008EF0009DDE4F50B309303750B0175120230939C
:1008FF0007AF120512EF70F6E5126401600EE50CFA
:0C090F0025E0F50CE50B420C0EBE08C6FE
:01091B0022B9
:10087300C293120A0ED2931209DD1209E61209E697
:10088300D293209356751202209307AF120512EFED
:1008930070F6751202309307AF120512EF70F6125D
:1008A30008DF850C0F1208DF850C101208DF850C9A
:1008B300081208DF850C091208DF850C0AD293E5BC
:1008C300082509250F2510F50BB50A0F850F0D8592
:0C08D300100E850811850913850A1422F7
:1009AD00BB010689828A83E0225002E722BBFE0248
:0909BD00E32289828A83E493227B
:00000001FF
