:03000000020C06E9
:0C0C0600787FE4F6D8FD758111020A40E9
:100800000000C038E0000000000000000000000010
:10081000203C2302022738200000000000000000D6
:10082000180808F808081800000000000000000080
:100830000000203F20000000000000000000000039
:1008400000708808088870000000000000000000A8
:10085000001C222121221C000000000000000000DA
:1008600000F008080810E000000000000000000090
:100870000001122222110F00000000000000000001
:10088000C030080808083800000000000000000020
:1008900007182020201008000000000000000000C1
:1008A00000F88888880808000000000000000000A8
:1008B0000019202020110E000000000000000000A0
:1008C00000001010F8000000000000000000000010
:1008D000000020203F202000000000000000000059
:1008E0000000F8494A4C48F8484C4A49FC080000C6
:1008F00010101712121212FF1212121213181000F7
:10090000000000FE20202020203F2020202000008A
:100910000080601F020202020202FE0000000000CE
:100920001010D0FF901000FE020202FE0000000036
:10093000040300FF0083601F0000003F4040780078
:1009400008049392969A92FA94939296FA0202006D
:100950004040472424140CFF04042444241C0000B9
:1009600020202020202021222C2020202020200098
:10097000004020100C030000000102041860000079
:1009800000020C80608040300FC808082818000062
:1009900002027E01804020180601061820408000D7
:1009A000100C048414640506F404040404140C00FC
:1009B000048484444724140C070C14244484040045
:1009C00002FA8282FE804020504C434C502040006E
:1009D00008184884443F404458414E6058474000FE
:1009E000404042CC00808888FF8888FF888880004B
:1009F0000040201F2040504C4340405F404040009A
:100A0000001088C4330040424242C2424242400089
:100A1000020100FF0000000040807F000000000095
:100A20000000F010101010FF10101010F000000067
:100A300000000F04040404FF040404040F00000079
:100BB600EF1FAC0670011E4C600A7D027CEFDCFE66
:040BC600DDFC80ECE6
:010BCA002208
:100BCB00EF1FAC0670011E4C600A7D027C18DCFE28
:040BDB00DDFC80ECD1
:010BDF0022F3
:070C12007F147E00020BCBF2
:100BE000C2A4C2A38F80D2A20000C2A27F147E0042
:030BF000020BCB2A
:100BF300D2A4C2A38F80D2A20000C2A27F147E001F
:030C0300020BCB16
:100B9500D2A0D2A5D2A67F3F120BE07FC0120BE0F8
:100BA5007FB8120BE07F40120BE07F147E00020B32
:010BB500B689
:100B7100AB05EBC394405006C2A5D2A68008D2A50E
:100B8100C2A674C02BFBEF24B8FF120BE0EB24408C
:040B9100FF020BE074
:0A0AE1008F088D098B0A8A0B890C1F
:100AEB00E4F50DE509250DFDAF08120B71AB0AAA54
:100AFB000BA90C850D82758300120B44FF120BF3AF
:100B0B00050DE50DC3941040DAE4F50DE50804FF7F
:100B1B00E509250DFD120B717410250DF582E433DB
:100B2B00F583AB0AAA0BA90C120B44FF120BF305AE
:080B3B000DE50DC3941040D438
:010B4300228F
:100A4000120B95E4F50EF50FE50FC454F0FDE50F1C
:100A5000AE0E7805C333CE33CED8F92400F974082E
:100A60003EFA7BFFE4FF120AE1050FE50F70020575
:100A70000EC39407E50E6480948040CC7BFF7A0817
:100A800079E0E4FD7F02120AE17BFF7A0979007DBB
:100A9000107F02120AE17BFF7A0979207D207F0214
:100AA000120AE1750E00750F0AE50F24F9C454F01F
:100AB000FDE50FAE0E7805C333CE33CED8F9240052
:100AC000F974083EFA7BFF7F02120AE1050FE50F79
:100AD0007002050ED3940EE50E6480948040CA80A7
:010AE000FE17
:100B4400BB010CE58229F582E5833AF583E0225066
:100B540006E92582F8E622BBFE06E92582F8E222B0
:0D0B6400E58229F582E5833AF583E49322CA
:00000001FF
