:0300000002091ED4
:0C091E00787FE4F6D8FD75810D0208001A
:0F090F00C0F9A4B0999282F88090FFF1F2F4F849
:1008F000D3EF9400EE94004015E4FDFC0DBD000123
:0E0900000CED647D4C70F5EF1F70E51E80E27B
:01090E0022C6
:10080000758902758A9C758C9C75A882D28CC2A74A
:10081000D2B6C2B6D2B630B0FDC2B7AF80D2B7EF53
:1008200075F064A4FFAEF07C007D3312089B8E0847
:100830008F097C007D0A12089B8D0DAE08AF097CE4
:10084000007D0A12089B7C007D0A12089B8D0CAE6D
:1008500008AF097C007D6412089B7C007D0A1208A9
:100860009B8D0BAE08AF097C037DE812089B8F0AB5
:10087000E4FBEBC394045098740A2BF8E690090F3C
:1008800093F590BB010353907FEB90091A93F4F515
:0B089000A07F017E001208F00B80D753
:03000B0002092ABD
:03092A00B2B13235
:10089B00BC000BBE0029EF8DF084FFADF022E4CC41
:1008AB00F875F008EF2FFFEE33FEEC33FCEE9DEC0A
:1008BB00984005FCEE9DFE0FD5F0E9E4CEFD22ED50
:1008CB00F8F5F0EE8420D21CFEADF075F008EF2F9A
:1008DB00FFED33FD4007985006D5F0F222C398FD8B
:0508EB000FD5F0EA2228
:00000001FF
