:03000000020D945A
:0C0D9400787FE4F6D8FD758120020D4642
:0A0DA000EDC32FFF74003400FE22A3
:040DB400120C3622C5
:0A0DAA00EFFA7930D9FE00DAF922E1
:100D4600750A64E4F5080508E508B4C8F9E4F50988
:100D56000509E509B4FAF9AF0A120DAA75089675E0
:100D660009C8AD09AF08120DA08E0B8F0C7510DAED
:100D7600750F0F750EC9750D3FAF10AE0FAD0EACEA
:0E0D86000D120DB48F148E138D128C1180FE81
:100BD8003A70FA83BCAAE9E43E81E0F8BF9DE9E6F1
:100BE8003F80000039283C1ABB9969663DA335E36C
:100BF800BF255DE73FC90FDB418DDBCCC44936EE2D
:100C080045C9913FC5B0F83D3F800000C317F53492
:100C1800452FFA73C60AFDDD120CC704A2E1920043
:100C28001420E015900BD87404120B5D8026120C6A
:100C3800C730E102B20020E0EB8C158D168E178FBD
:100C480018900BEC7404120B5DA815A916AA17AB23
:100C580018120942ED4C6007300004EC6480FC2255
:100C6800120CC7C0E08C158D168E178F18900C10BB
:100C78007403120B5DA815A916AA17AB181209421E
:100C8800ECC515FCEDC516FDEEC517FEEFC518FF42
:100C9800900C007403120B5DD082A815A916AA1730
:100CA800AB18E58230E007120A4BB20080A6EFCB02
:100CB800FFEECAFEEDC9FDECC8FC120A4B8095EDAB
:100CC80033EC547FCC33920024605007D0E0D0E05E
:100CD8000208357B837AF97922783E120942EDF9C8
:100CE80033ECF83324815011EFFBEEFA120B261285
:100CF8000AE8ECB2E7FC120851ED33EC33602F241C
:100D080003F8C313FCED92E7FDE82481E4501FECDF
:100D1800F8EDF9EEFAEFFB120B26EF04C2E0FCF552
:100D280082120AF2ECB2E7FC120851E58203FAEDEE
:0E0D380033EC3360071413FCED92E7FDEA2262
:10080000E9D2E7C933E833F892D5EDD2E7CD33EC3E
:0708100033FC5002B2D522B7
:10081700EC30E7100FBF000C0EBE00080DBD000442
:100827000BEB6014A2D5EB13FCED92E7FD2274FFEE
:10083700FCFDFEFF22E480F8A2D574FF13FC7D8047
:03084700E480EF5B
:10084A00020835E86480F8E933E83360110460F09F
:10085A00ED33EC337009E8FCE9FDEAFEEBFF220414
:10086A0060DED3EB9FEA9EE99DE8C2E78CF0C2F70F
:10087A0095F0400CE8CCF8E9CDF9EACEFAEBCFFBDB
:10088A0012080085D0F05804700320D5B3E804702C
:10089A00075002B2D502083F92D5EC0460F7E4CCC7
:1008AA00C0E0C398F8603B94186008400DD0E0FBA4
:1008BA00020817E4FBFAC9FC8028E830E406E4C918
:1008CA00FBE4CAFCE830E305E4C9CACBFCE85407F8
:1008DA006010F8C3E913F9EA13FAEB13FBEC13FC03
:1008EA00D8F130F52FC3E49CFCEF9BFFEE9AFEEDA6
:1008FA0099FDD0E0FBEF4E4D4C701222DB0302084B
:10090A003CEC2CFCEF33FFEE33FEED33FDED30E72C
:10091A00EB020817EF2BFFEE3AFEED39FDD0E0FBB4
:10092A0050130BBB000302083FED13FDEE13FEEF5D
:08093A0013FFEC13FC02081787
:10094200EC4D6011E8497017ED33EC3304600DE4AF
:10095200FCFFFEFD22E933E8330470F80208351289
:10096200080058046009E4CC24815006285009028A
:10097200083F28400302083CC0E0EB4A7044B980BB
:1009820006D0E0FB02082BEF4E701CBD8008EBFF87
:10099200EAFEE9FD80EBE98DF0A4FEE5F0020A2B08
:1009A200E9CDF9EAFEEBFFEF89F0A4FCE5F0CE8990
:1009B200F0A42EFFE435F0CD89F0A42DFEE435F04D
:1009C2008067EF4E7005BD80D780C3EF8BF0A4AC7B
:1009D200F0EE8BF0A42CFCE435F0F8EF8AF0A42CB6
:1009E200E5F038FCE433CB8DF0A42CFCE5F03BF8C9
:1009F200EE8AF0A42CFCE5F038F8E433CF89F0A4B9
:100A02002CFCE5F038CF3400CE89F0A42FFFE5F0BE
:100A12003EFEE433C98DF0A42EFEE5F039CD8AF016
:100A2200A42FFFE5F03EFEE43DFD33D0E0FB50078E
:100A32000BBB000F02083FEC2CFCEF33FFEE33FE42
:060A4200ED33FD02081770
:100A480002083FEC5D046005E859047003020835AC
:100A5800120800580460F6EC4860F2EC7004FDFEE1
:100A6800FF22C860DB2481C85009C3986002500681
:100A780002083C9850CAF582E9294B4A7005AB82B6
:100A880002082B75F0007C1A7880C3EF9BEE9AED74
:100A980099400DC3EF9BFFEE9AFEED99FDE842F0F9
:100AA800DC23ACF0D0E0FFD0E0FED0E0FDAB82204C
:100AB800E7101BEB60BAEC2CFCEF33FFEE33FEEDD6
:100AC80033FD020817E803F830E705C0F075F000B9
:100AD800EF2FFFEE33FEED33FD40B830E7C280AABA
:100AE80075F020800E75F010800575F0087D007E89
:100AF800007F003392D530D503120BAAEC33401097
:100B0800EF33FFEE33FEED33FDEC33FCD5F0ED2291
:0E0B1800E5F0247EA2D513CC92E7CDCEFF22CD
:100B2600EDD2E7CD33EC3392D524814006E4FFFEC7
:100B3600FDFC22FCE4CFCECDCC24E0501174FF8026
:100B4600EDC3CC13CCCD13CDCE13CECF13CF0470C3
:070B5600F030D5DE020BAA0E
:100B5D00C0E0EFFBEEFAEDF9ECF8120942D0E0F54A
:100B6D00F0EFFBEEFAEDF9ECF8120BB8A3A3A3A38B
:100B7D00E8C0E0E9C0E0EAC0E0EBC0E0C0F0120977
:100B8D0042120BC8A3A3A3A3120851D0F0D0E0FBCF
:0D0B9D00D0E0FAD0E0F9D0E0F8D5F0D42295
:0E0BAA00C3E49FFFE49EFEE49DFDE49CFC225C
:100BB800E493FC740193FD740293FE740393FF2283
:100BC800E493F8740193F9740293FA740393FB2283
:00000001FF
