:03000000020D628C
:0C0D6200787FE4F6D8FD758120020DA911
:100FA200EF1FAA0670011E4A60107C027D3AED1DF9
:0A0FB200AA0470011C4A60E880F4F4
:010FBC002212
:0310620000002269
:100EED00D2A0121062C2A17F007E007D007C002086
:100EFD00A0FDE4FBD2A17801120B5DC2A130A00DC3
:100F0D00EF2401FFE43EFEE43DFDE43CFC0BBB1889
:0C0F1D00E3D2A1ED6480FD121062C2A1BD
:010F290022A5
:100F630057656C636F6D6520746F20757365212001
:100F7300005745494748543A20202020202020206C
:020F830020004C
:10103300041000000000040800000000040C00007D
:021043000000AB
:100F8500120EED8F138E128D118C10E47B64FAF91D
:0D0F9500F8120AAC8F0B8E0A8D098C082211
:100DEE00120EED8F138E128D118C10E47B64FAF9B6
:100DFE00F8120AAC8F138E128D118C10AF0BAE0A37
:100E0E00AD09AC08AB13AA12A911A810C3120B4C52
:100E1E00405185130F85120E85110D85100CE50FAF
:100E2E00950BF50FE50E950AF50EE50D9509F50DE9
:100E3E00E50C9508F50CAF0FAE0EAD0DFCE41209E6
:100E4E00987BCD7ACC797C78401208FB7BCD7ACC1E
:100E5E00794C783D1208071209D6E48F0F8E0EF5E5
:040E6E000DF50C2250
:100B700012104612101F7BFF7A0F79637D01E4FF8C
:100B8000120F2A7FE87E03120FA212105D7BFF7AFC
:100B90000F79747D01E4FF120F2A120F85120DEEFA
:100BA0007FC0120FBD7F2012100B7F2012100B7F11
:100BB0002012100B7F2012100B7F2012100B7F20B1
:100BC00012100B7F2012100B7FC0120FBDE47B10A0
:100BD0007A27F9F8AF0FAE0EAD0DAC0C120AACE4EB
:100BE000FBFAF9F8C3120B4C6018E47B107A27F873
:100BF000AF0FAE0EAD0DAC0C120AACEF2430FF12ED
:100C0000100BE47BE87A03F9F8AF0FAE0EAD0DAC34
:100C10000C120AACE4FBFAF9F8C3120B4C602AE49C
:100C20007B107A27F8AF0FAE0EAD0DAC0C120AACEC
:100C3000AC00AD01AE02AF03E47BE87A03F9F81231
:100C40000AACEF2430FF12100BE47B64FAF9F8AF22
:100C50000FAE0EAD0DAC0C120AACE4FBFAF9F8C302
:100C6000120B4C603BE47B107A27F8AF0FAE0EAD51
:100C70000DAC0C120AACAC00AD01AE02AF03E47BCC
:100C8000E87A03F9F8120AACAC00AD01AE02AF038A
:100C9000E47B64FAF9F8120AACEF2430FF12100B6F
:100CA000E47B0AFAF9F8AF0FAE0EAD0DAC0C120AE8
:100CB000ACE4FBFAF9F8C3120B4C604CE47B107AFD
:100CC00027F8AF0FAE0EAD0DAC0C120AACAC00ADF8
:100CD00001AE02AF03E47BE87A03F9F8120AACAC88
:100CE00000AD01AE02AF03E47B64FAF9F8120AAC7E
:100CF000AC00AD01AE02AF03E47B0AFAF9F8120AC8
:100D0000ACEF2430FF12100BE47B107A27F9F8AF18
:100D10000FAE0EAD0DAC0C120AACAC00AD01AE02C4
:100D2000AF03E47BE87A03F9F8120AACAC00AD013A
:100D3000AE02AF03E47B64FAF9F8120AACAC00AD82
:100D400001AE02AF03E47B0AFAF9F8120AACEB2415
:100D500030FF12100B7F2012100B7F6712100B0256
:020D60000B9DE9
:100FBD00C295C297C2968F807F017E00120FA2D27A
:0B0FCD00957F017E00120FA2C295224A
:10100B00C295D297C2968F80D2957F017E00120F28
:04101B00A2C29522B6
:10101F007F38120FBD7F0C120FBD7F06120FBD7FE1
:04102F0001020FBDEE
:100F2A008F198B1A8A1B891CE519BD01042480803C
:100F3A000224C0FF120FBDAB1AAA1BA91C120A5722
:100F4A00D394004013051CE51C7002051B14F9120A
:090F5A000A57FF12100B80DF2280
:100FF3008F1D8B1EE51DBD01042480800224C0FFCC
:08100300120FBDAF1E02100B1D
:100FD8008F1F8B20E51FBD01042480800224C0FFE1
:0B0FE800120FBDE5202430FF02100BAB
:060E72008F148D158B1694
:100E7800E4F517F518E516D394634032E51675F0D6
:100E88000A8485F018E51675F06484E5F075F00AB3
:100E980084F517E51675F06484FB120FD8E5140481
:100EA800FFAB17AD15120FD8E51424028023E51601
:100EB800D394094023E51675F00A8485F018E516E1
:100EC80075F00A84F517FBAD15AF14120FD8E514A9
:100ED80004FFAB18AD158009851618AB18AD15AF12
:040EE80014120FD8F9
:010EEC0022E3
:05105D007F01020FBD40
:0F10460075985A758920758BFD758DFDD28E2298
:081055003099FDC2998F992228
:10080000020A42E86480F8E933E83360110460F0DA
:10081000ED33EC337009E8FCE9FDEAFEEBFF22045E
:1008200060DED3EB9FEA9EE99DE8C2E78CF0C2F759
:1008300095F0400CE8CCF8E9CDF9EACEFAEBCFFB25
:10084000120A0D85D0F05804700320D5B3E8047067
:10085000075002B2D5020A4C92D5EC0460F7E4CC02
:10086000C0E0C398F8603B94186008400DD0E0FBEE
:10087000020A24E4FBFAC9FC8028E830E406E4C953
:10088000FBE4CAFCE830E305E4C9CACBFCE8540742
:100890006010F8C3E913F9EA13FAEB13FBEC13FC4D
:1008A000D8F130F52FC3E49CFCEF9BFFEE9AFEEDF0
:1008B00099FDD0E0FBEF4E4D4C701222DB03020A93
:1008C00049EC2CFCEF33FFEE33FEED33FDED30E76A
:1008D000EB020A24EF2BFFEE3AFEED39FDD0E0FBF0
:1008E00050130BBB0003020A4CED13FDEE13FEEF99
:0808F00013FFEC13FC020A24C3
:1008F800020A4CEC5D046005E859047003020A42E0
:10090800120A0D580460F6EC4860F2EC7004FDFE23
:10091800FF22C860DB2481C85009C39860025006D2
:10092800020A499850CAF582E9294B4A7005AB82F8
:10093800020A3875F0007C1A7880C3EF9BEE9AEDB6
:1009480099400DC3EF9BFFEE9AFEED99FDE842F04A
:10095800DC23ACF0D0E0FFD0E0FED0E0FDAB82209D
:10096800E7101BEB60BAEC2CFCEF33FFEE33FEED27
:1009780033FD020A24E803F830E705C0F075F000FB
:10098800EF2FFFEE33FEED33FD40B830E7C280AA0B
:1009980075F020800E75F010800575F0087D007EDA
:1009A800007F003392D530D503120B3EEC33401054
:1009B800EF33FFEE33FEED33FDEC33FCD5F0ED22E3
:0E09C800E5F0247EA2D513CC92E7CDCEFF221F
:1009D600EDD2E7CD33EC3392D524814006E4FFFE19
:1009E600FDFC22FCE4CFCECDCC24E0501174FF8078
:1009F600EDC3CC13CCCD13CDCE13CECF13CF047015
:070A0600F030D5DE020B3ECB
:100A0D00E9D2E7C933E833F892D5EDD2E7CD33EC2F
:070A1D0033FC5002B2D522A8
:100A2400EC30E7100FBF000C0EBE00080DBD000433
:100A34000BEB6014A2D5EB13FCED92E7FD2274FFDF
:100A4400FCFDFEFF22E480F8A2D574FF13FC7D8038
:030A5400E480EF4C
:100D6E00020B70E493A3F8E493A34003F68001F220
:100D7E0008DFF48029E493A3F85407240CC8C33386
:100D8E00C4540F4420C8834004F456800146F6DF55
:100D9E00E4800B0102040810204080901033E47EA2
:100DAE00019360BCA3FF543F30E509541FFEE4934A
:100DBE00A360010ECF54C025E060A840B8E493A311
:100DCE00FAE493A3F8E493A3C8C582C8CAC583CA3C
:100DDE00F0A3C8C582C8CAC583CADFE9DEE780BEF4
:0110450000AA
:100A5700BB010689828A83E0225002E722BBFE029D
:090A6700E32289828A83E49322D0
:100A700075F008758200EF2FFFEE33FECD33CDCC3D
:100A800033CCC58233C5829BED9AEC99E5829840C0
:100A90000CF582EE9BFEED9AFDEC99FC0FD5F0D69D
:100AA000E4CEFBE4CDFAE4CCF9A88222B800C1B9C7
:100AB0000059BA002DEC8BF084CFCECDFCE5F0CB05
:100AC000F97818EF2FFFEE33FEED33FDEC33FCEB3E
:100AD00033FB10D703994004EB99FB0FD8E5E4F9F9
:100AE000FA227818EF2FFFEE33FEED33FDEC33FCE6
:100AF000C933C910D7059BE99A4007EC9BFCE99ADA
:100B0000F90FD8E0E4C9FAE4CCFB2275F010EF2F1E
:100B1000FFEE33FEED33FDCC33CCC833C810D7071E
:100B20009BEC9AE899400AED9BFDEC9AFCE899F859
:0E0B30000FD5F0DAE4CDFBE4CCFAE4C8F922EC
:0E0B3E00C3E49FFFE49EFEE49DFDE49CFC22C8
:100B4C00EB9FF5F0EA9E42F0E99D42F0E89C45F0FF
:010B5C002276
:100B5D00E8600FEFC333FFEE33FEED33FDEC33FCF6
:030B6D00D8F1229A
:00000001FF
